:4000000000800020110000003D0500003D05000008B5044B1A6803F53F5302331A6000F0ADFA00BFFA46004010B5054C237833B9044B13B10448AFF300800123237010BD4C
:40004000C081FF1F0000000038330000084B10B51BB108490848AFF300800848036803B910BD074B002BFBD0BDE81040184700BF00000000C481FF1F38330000C880FF1F3C
:4000800000000000704700BF10B500F017FC164B1B781BB3144A53780133537000F04AFB10BD00F031FBC0B23A2803D100220E4B9A7011E00D2801D00A2803D101220A4B60
:4000C0001A7009E0084B9B7813F0800F04D1591C054A9170054AD054013400E0002400F01DFB8442DDDD10BDDC81FF1F0C84FF1F38B504468368187800F0E6FB194B5B6827
:400100007BBB0122174B5A60A3681A789AB1012A0AD15D789B7843EA052500230DE00021114A9954013300E00023B3F5967FF6D30123002501E000231D4643B10CE0E91856
:40014000A2681A441079084A8854013300E00023A279043A9342F2D3024B01229A6000225A6038BDDC81FF1F3C85FF1F00B583B0002300930193684600F040FB019B009A60
:40018000534023F07C43054A536000F083FA044800F086FB62B603B05DF804FB9484FF1F8900000030B585B0FFF7E0FF424B02930A238DF804300024039401AA3F4BC3F82E
:4001C000A42000F02DFD204600F0D6FC3C4B186E00F02CFC3B4A3C4B1A60012000F054FC3A4B1B7833B1394DA978394800F080FB00232B70354B5B7833B100F059FA002204
:40020000324B5A7000F046FA012000F0E1FA43F697239C4205D90D222E492F4800F0BCFB002400F05DFB00283AD10F222B492A4800F0B2FB2A4BFF221A604FF47F425A60C7
:400240004FF47F029A606FF07F42DA60042305E04FF07F41224A42F823100133B3F5967FF6D3012000F010FC02E00A2000F0B0FA00F036FB0028F8D010221A49164800F011
:400280008BFB0023164A136004E00021144A42F823100133B3F5967FF7D3012000F0F4FB0A4B9B682BB1012000F0EEFB0022074B9A60013494E700BFF10000009484FF1F05
:4002C000B8330000850000009084FF1FDC81FF1F0C84FF1F4033000078563412503300003C85FF1F60330000FEE700BFF0B40022174611E050F82760F3B226F0FF0608E088
:4003000001EB420511F812406D78A5550132013BDBB2002BF4D10137172FEBD9F0BC7047064B1B78DBB203F00701054A11701B09013213704422034B1A707047CF0100499B
:400340006E5800407658004008B50A46002101F03AF808BD38B50024264B1C80582202331A700C2202331A80182202331A70022203F27A231A7008224FF040231A7003214C
:4003800003F5007319701C4B1B78DBB21B490B701B4B1A8041F25122023B1A8019250CE0184B1B7803F0010343EA440404F003044FF4F07000F0E8FC013D0DB1032CEFD17D
:4003C00015B90320FFF790FF0F4B4FF480721A8007221A7000220D490A704820023108701A700222033B1A70094A137843F00303137038BD8040004008010049A146004028
:4004000022420040254200400440004006400040A243004008B500F0CBFF08BD38B572B6354A137843F00403137000240CE0334D630019194A0011462A440846918828580F
:40044000FFF782FF0134E4B2072CF0D900240BE02A48A20011194B0003441A8F596B186BFFF7D8FF0134E4B2012CF1D924494FF09040FFF73BFF234A137843F00203137081
:400480001032137843F0020313701F4C237843F040032370A2F58632513A137843F0100313700A2219491A48FFF7B4FF082219491948FFF7AFFF082218491948FFF7AAFFC2
:4004C0000A2218491848FFF7A5FF184A137843F008031370164D61232B70FFF73BFF81232B700122134B1A70FFF71AFF0E2221461148FFF78FFF38BDE8460040743300003E
:400500006000004803500140A0430040C4050048C0510040D0050048F2510040D805004812510040E005004820510040224300400048004004000840B043004008B500F05B
:400540000BFF03680C2B00D1FEE7FEE708B5094B1A681044084BC31AB3F5407F02DC054B186005E000F0F8FE0C2303604FF0FF32104608BDCC80FF1F108AFF1F08B5104EEB
:40058000104D16E029686B68AC68002204E051F8040B43F8040B0432A242F8D1E868002203E0002143F8041B04328242F9D11035013E002EE6D100F0D5FEFFF7F3FDFEE75A
:4005C00001000000CC39000008B5104A104B1A60104A136843F40073136000230AE0032B03D80D4A52F8231000E00C490C4A42F8231001332F2BF2D90A4B1A780A4B1A7016
:40060000074A0A4B1A60FFF709FF08BD0004FA050CED00E014ED00E0000000003D0500000080FF1FBC760040C080FF1F08ED00E07622084B1A702022A3F580731A700E2299
:40064000A1331A708F2210331A70002251331A70704700BF8865004010B500F09DFB04460B4A137843F020031370A2F58072137843F01003137002F58172137843F01003E3
:40068000137000F089F8204600F08AFB10BD00BF9865004008B5054B1B7823B9FFF7C8FF0122024B1A70FFF7D7FF08BDE981FF1F10B500F071FB04460A4A137803F0DF0337
:4006C000137000F077F8084A137803F0EF03137002F58172137803F0EF031370204600F05FFB10BD9865004098640040014B1878704700BF48640040024B187800F07F0076
:40070000704700BF6864004010B5FFF7F5FF0402FFF7ECFF204380B210BD00BF044B1B7813F0200F01D0012070470020704700BF6864004008B500F02FFB064B1A7842F035
:4007400001021A701A7802F0FE021A7000F028FB08BD00BF98640040034B1B7813F0040FFAD1024B187070476A6500404A650040084B1B7833B97047305DFFF7EDFF013492
:40078000E4B203E070B50D4606460024AC42F3D370BD00BFE981FF1F054A137843F0020313701032137843F002031370704700BFA2430040054A137803F0FD031370103266
:4007C000137803F0FD031370704700BFA243004010B5044605E0084B186800F0D5FAA4F50044B4F5004FF6D8034B586800FB04F000F0CAFA10BD00BFD080FF1F134B1B7898
:40080000DBB20360124A127843EA02230360114A127843EA024303600F4A127843EA026303600E4B1B78DBB243600D4A127843EA022343600B4A127843EA024343600A4A61
:40084000127843EA02634360704700BF0301004904010049EC4600400201004901010049000100490501004906010049014B1B689864704708ED00E04001C0B2014B1870D8
:40088000704700BF02E400E00422014B1A60704700E100E00422014B1A60704780E100E010B50446FFF7F6FF2046FFF7DFFF0120FFF7E2FFFFF7E8FF10BD00BF0422014BAD
:4008C0001A60704780E200E0044A137803F0FD03400000F0020018431070704720510040024B1878C0F38000704700BF215100400E294ED910B5A4B004AC224600F0E4FAAF
:40090000C0B224AB034413F8801C421C24AB1A4412F8803C43EA0123821E24A90A44002102F8801C0194ADF808300E388DF80A0007AB0393049B9A0F03D0032A09D00B4673
:400940000AE023F04043134A5268934203D0002302E0FF2300E0FF23CBB19DF81910012906D10C4BD3F8A0308BB101A898470EE0084BD3F8A43008E01A78914204D15B6859
:400980002BB101A8984702E09B68002BF4D124B010BD70479484FF1F30B5C1B015462090204A536821932048037803F0E0036FF3471303708DF888300A238DF88930D3696A
:4009C000581CD061ADF88A30002404E00A5D23AB1A550134E4B2AC42F8D305F10C01C9B220A800F0E3FA631CDBB223AA1055C0F30720D05405F10E010DF10102C9B220A82B
:400A000000F0F6F9C0B23A238DF80030431C0A220DF80320811CC9B26846FFF7A9FE41B030BD00BF9484FF1F8C84FF1F10B400240DE04FF4967202FB0432074941F822003E
:400A4000013300E00023B3F5967FF2D30134002CF8D010BC704700BF3C85FF1F084B1B7813F0010FFAD0C2B2064B1A70C0F307221A70C0F307421A70000E1870704700BF69
:400A80006B6400404865004010B520B100230B4A93600B4A1370094CA2684FF4966303FB02F3084AD058FFF7D9FF0123E3601922054B1A700022054B1A6010BDEC81FF1FCB
:400AC0007B6400403C85FF1F78640040F489FF1F08B50B4BDB68B3F5967F0DD208498A68581CC8604FF4967101FB0233054A52F82300FFF7B3FF08BD1122034B1A7008BDFC
:400B0000EC81FF1F3C85FF1F7864004010B52122134B1A70134A93680133936093B9DBB2114A13700F4CA2684FF4966303FB02F30E4AD058FFF792FF0123E3600922084B89
:400B40001A7010BD01220A4B1A600A4B1B682BB11046FFF73DFE074B1B68984710BD00BF78640040EC81FF1F7B6400403C85FF1FF489FF1F9084FF1F0138062836D8DFE803
:400B800000F0040B121920272E001C4A1C4B1A6001221C4B1A6070471B4A194B1A600222184B1A607047194A154B1A600322154B1A607047164A124B1A600422114B1A6073
:400BC0007047144A0E4B1A6005220E4B1A607047114A0B4B1A6006220A4B1A6070470F4A074B1A600722074B1A6070476FF07F42034B1A600022034B1A6070477F7F7F00AC
:400C0000EC89FF1FF089FF1F3F3F3F001F1F1F000F0F0F0007070700030303000101010038B50123154A13700321154A11701D21503A11701821203A11700E2110321170DC
:400C4000104D2B700020FFF7F1FE00242C70204600F022F82046FFF78FFF0B4B1B7C43B90122094B1A74094800F07EF8084800F053F80122074B1A6038BD00BF8D84FF1F5B
:400C80009B65004078640040EC81FF1F0D0B0000D10A0000F489FF1F60B90D4A0D4B1A6005220D4B1A6007220C4B1A6020220C4B1A607047064A074B1A600522064B1A60B2
:400CC0000722064B1A602022054B1A60704700BF98360000008AFF1FF889FF1F048AFF1FFC89FF1F014B1B685864704708ED00E04001C0B2014B1870704700BF01E400E041
:400D00000222014B1A60704700E100E00222014B1A60704780E100E010B50446FFF7F6FF2046FFF7DFFF0720FFF7E2FFFFF7E8FF10BD00BF014B1B681864704708ED00E0FD
:400D40004001C0B2014B1870704700BF00E400E00122014B1A60704700E100E00122014B1A60704780E100E010B50446FFF7F6FF2046FFF7DFFF0720FFF7E2FFFFF7E8FF61
:400D800010BD00BF000000000230800803D000BF01380046FCD17047EFF3108072B6704780F31088704700BF03462B2817D02F2817D03D2817D0A0F13002D2B2092A02D825
:400DC0000433D8B270474138C0B219280ED9A3F16102D2B2192A08D8473BD8B270473E2070473F207047402070470020704700BFF0B583B0064600200446034632E0651CC5
:400E0000EDB2F75C0DF1080E744404F8047C032D25D19DF80440A5082A4F7D5D155400F1010E250105F030059DF8054005EB14157D5D02F80E5000F1020EA40004F03C04C2
:400E40009DF8065004EB95143C5D02F80E40C41C05F03F057D5D15550430C0B200250133DBB22C468B42CAD33CB3012C02D100238DF8053001469DF804309D08114F7D5D8E
:400E80001554451C1B0103F030039DF8056003EB1613FF5C5755022C07D1841CB30003F03C03084DED5C155502E0831C3D24D454CB1C3D21D1540430C0B20023135403B024
:400EC000F0BD00BFE080FF1F2DE9F04782B081468846924600273E463C4638E0751CEDB219F80400FFF760FF02AB1E4406F8040C042D29D138469DF804209DF80550C5F31C
:400F0000011303EB82030AF807309DF80630402B17D07A1CC3F3830101EB05110AF802109DF80720402A08D0023002EB83130AF800300337FFB2002506E00237FFB2002504
:400F400002E00137FFB200250134E4B22E464445C4D3384602B0BDE8F08700BF10B4002419E082EA010010F0010F04D04AF2010080EA520200E05208C1F34F0101339BB22B
:400F800002E0214600221346072BEAD9064B23F814200134A4B2FF2CF3D90122024B83F8002210BC704700BF0082FF1F38B504460D460C4B93F800320BB9FFF7CFFF64B924
:400FC000002038BD23784340DBB2064931F8133083EA10200132013401E000221046AA42F0D338BD0082FF1F81F0004102E000BF83F0004330B54FEA41044FEA430594EA69
:40100000050F08BF90EA020F1FBF54EA000C55EA020C7FEA645C7FEA655C00F0E2804FEA5454D4EB5555B8BF6D420CDD2C4480EA020281EA030382EA000083EA010180EA43
:40104000020281EA0303362D88BF30BD11F0004F4FEA01314FF4801C4CEA113102D0404261EB410113F0004F4FEA03334CEA133302D0524263EB430394EA050F00F0A78090
:40108000A4F10104D5F1200E0DDB02FA0EFC22FA05F2801841F1000103FA0EF2801843FA05F359410EE0A5F120050EF1200E012A03FA0EFC28BF4CF0020C43FA05F3C0182C
:4010C00051EBE37101F0004507D54FF0000EDCF1000C7EEB00006EEB0101B1F5801F1BD3B1F5001F0CD349085FEA30004FEA3C0C04F101044FEA445212F5800F80F09A8059
:40110000BCF1004F08BF5FEA500C50F1000041EB045141EA050130BD5FEA4C0C404141EB010111F4801FA4F10104E9D191F0000F04BF01460020B1FA81F308BF2033A3F198
:401140000B03B3F120020CDA0C3208DD02F1140CC2F10C0201FA0CF021FA02F10CE002F11402D8BFC2F1200C01FA02F120FA0CFCDCBF41EA0C019040E41AA2BF01EB0451FB
:40118000294330BD6FEA04041F3C1CDA0C340EDC04F11404C4F1200220FA04F001FA02F340EA030021FA04F345EA030130BDC4F10C04C4F1200220FA02F001FA04F340EAF5
:4011C0000300294630BD21FA04F0294630BD94F0000F83F4801306BF81F480110134013D4EE77FEA645C18BF7FEA655C29D094EA050F08BF90EA020F05D054EA000C04BF2C
:401200001946104630BD91EA030F1EBF0021002030BD5FEA545C05D14000494128BF41F0004130BD14F580043CBF01F5801130BD01F0004545F0FE4141F470014FF000000A
:4012400030BD7FEA645C1ABF194610467FEA655C1CBF0B46024650EA013406BF52EA033591EA030F41F4002130BD00BF90F0000F04BF0021704730B54FF4806404F1320494
:401280004FF000054FF0000150E700BF90F0000F04BF0021704730B54FF4806404F1320410F0004548BF40424FF000013EE700BF42004FEAE2014FEA31014FEA02701FBF0F
:4012C00012F07F4393F07F4F81F06051704792F0000F14BF93F07F4F704730B54FF4607401F0004521F0004120E700BF50EA010208BF704730B54FF000050AE050EA01023F
:4013000008BF704730B511F0004502D5404261EB41014FF4806404F132045FEA915C3FF4DCAE4FF003025FEADC0C18BF03325FEADC0C18BF033202EBDC02C2F1200300FA7F
:4013400003FC20FA02F001FA03FE40EA0E0021FA02F11444C1E600BF014B1868704700BF8481FF1F0E4B70B51E460E4C0025E41AA410A54204D056F8253098470135F8E798
:4013800002F012FB084B094C1E46E41AA4100025A54204D056F8253098470135F8E770BDB4390000B4390000B4390000BC39000010B5431E0A44914204D011F8014B03F8A5
:4013C000014FF8E710BD03460244934202D003F8011BFAE770472DE9F04788B0149F002B1E461299B8BF03F1004327F02007B6BF1E4600232D23462F1446109DDDF84CA025
:401400000B7003D0452F03D1013501E0032300E0022307AA049206AA03928DE828042246334600F0B9FB472F804602D1119BDB0728D5462F08EB050911D198F80030302B15
:401440000AD1002200232046314601F005FF18B9C5F10105CAF80050DAF800309944002200232046314601F0F7FE08B9302202E0CDF81C9006E0079B994503D9591C07913F
:401480001A70F8E74046079B159AC8EB0303136008B0BDE8F087034673B50029B8BF494203F8022BB4BF2D222B22092942701ADD0DF1070216460A2591FBF5F405FB141112
:4014C000092C01F1300102F8011D2146F4DC3031541E02F8011CB4421A460AD214F8012B03F8012BF7E71A463024214402F8024B5970101A02B070BD2DE9F04F91B00C46D2
:40150000DDF8688016461F46054601F0DDF803681846099300F0AAFA00230E93D8F800300A90073323F0070303F1080294F81890D4F800B0C8F80020D3E90023C4E912231F
:40154000D4F84CA0D4F848802AF000430B934FF0FF32A74B40460B9901F0B0FEA0B94FF0FF32A34B40460B9901F08AFE60B9002200234046514601F079FE10B12D2384F82F
:4015800043309C4B9C4A0AE0424653464046514601F094FE002800F09281984B984AB9F1470F8CBF90469846032323612BF0040323604FF0000A3DE0B9F1670F00F08A8181
:4015C000B9F1470F00F0868123600193636800210DF13302059002920093424653460691CDF81090CDF80CE02846FFF7F4FE09F0DF03472B804600F08481B9F1650F0D9912
:4016000000F28D8101394A4604F150000D91FFF742FF0E9A82468318012A236100F37C812268D10700F178819DF8333013B12D2384F84330009733460FAA2146284600F047
:401640009FF9013002D14FF0FF3096E123685A0501D4236965E0B9F1650F40F2D580D4E912010022002301F0F7FD78B30123654A31462846B8470130E5D00E9B0D9A9A42C6
:401680000BDB2368D80708D423689B0740F111814FF0000804F1190906E10A9B099A31462846B8470130CED04FF0000804F11A090E9B013B9845E7DA01234A463146284653
:4016C000B8470130BFD008F10108F1E70D9B002B29DC01234B4A31462846B8470130B2D00D9B23B90E9B13B92368D907CCD50A9B099A31462846B8470130A4D04FF000090B
:4017000004F11A0A0D9B5B42994509DA0123524631462846B847013095D009F10109F1E70E9B4246A7E00E9AA36D9A42A8BF1A46002A914606DC4FF0000A29EAE97904F1CF
:401740001A0B11E01346314642462846B8470130F1D178E701235A4631462846B84701303FF471AF0AF1010AA36DC9EB03029245F0DB08EB03090D9A0E9B9A420FDB2368FF
:40178000DA070CD40E9B0D9A9844C9EB08089B1A9845A8BF9846B8F1000F08DC0FE00A9B099A31462846B8470130EBD14BE743464A4631462846B84701303FF444AF4FF038
:4017C000000928EAE87804F11A0A09E00123524631462846B84701303FF435AF09F101090D9A0E9B9B1AC8EB03039945EEDB4BE7FFFFEF7F7A3800007E380000823800005B
:40180000863800008A3800000E9A012A01DCDB0738D50123424631462846B84701303FF412AF0A9B099A31462846B84701303FF40AAFD4E912010022002301F00DFD20B1AA
:401840004FF0000804F11A090EE00E9B08F10102013B19E001234A4631462846B84701303FF4F1AE08F101080E9B013B9845F1DB534604F1500231462846B84701307FF4AE
:4018800003AFE0E64246012331462846B8470130EED1D8E601234A4631462846B84701303FF4D1AE08F10108E3680F9A9B1A9845F0DBE0680F9B9842B8BF18465DE06268FC
:4018C0000EA8531C0DF1340E4BF480637FF474AE062201E012B90122626075E6002106910DF133018DE80C00236005904246CDF81090CDF80CE0029153462846FFF76BFD9F
:4019000080460D9BD81C02DB626893421DDDA9F102095FFA89F970E60133236184E6B9F1660F14D10029636807DD216113B92268D2071DD501330B4419E013B92268D007AF
:4019400001D5023313E0012311E04FF067090D9B0E9A934205DB22682361D10708D5013305E0002BD4BFC3F102030123134423610D9B4FF0000AA36556E611B0BDE8F08F34
:401980002DE9F04791461F460A698B6806469342B8BF1346C9F8003091F843200C46DDF8208012B10133C9F800302368990642BFD9F800300233C9F80030256815F00605CC
:4019C00010D104F1190A07E00123524639463046C04701301AD00135E368D9F800209B1A9D42F1DB94F843302268003318BF012392060FD5E118302081F843005A1C94F828
:401A000045102244023382F8431003E04FF0FF30BDE8F08704F1430239463046C0470130F4D02268D9F80050E36802F00602042A08BF5D1B2269A3680CBF25EAE575002505
:401A40009342C4BF9B1AED184FF000091A344D4509D00123224639463046C0470130D5D009F10109F3E70020BDE8F087034613F8012B002AFBD1181A013870472DE9F74FE7
:401A800003690C6980469C427FDC013C01F114074FEA840E00F1140606EB0E0357F82450019356F824300135B3FBF5F507EB0E09C5B34FF0000A3846B446D34650F8043B7B
:401AC0009AB205FB02A21B0C4FEA124A05FB03A392B2C2EB0B0BBCF800204FEA134A5A441FFA83FBDCF800308145CBEB134303EB224392B242EA03424FEA234B4CF8042BF6
:401B0000DCD256F80E306BB9019B043B9E421A4602D3C8F8104005E01268043B002AF8D1013CF3E7404600F0E8FF00282BDB304601354FF0000E57F8042B036891B2C1EB43
:401B40000E0E120C99B27144C2EB134303EB214389B24FEA234EB94541EA034340F8043BE9D256F8242006EB840362B9043B9E421A4602D3C8F8104005E01268043B002AFF
:401B8000F8D1013CF3E7284600E0002003B0BDE8F08F0000000000002DE9F04F456A95B08246219CCDE9022345B9102000F090FDCAF82400456085600560C560DAF824308C
:401BC000196859B15A68012393404A608B60504600F0BBFDDAF8243000221A60039BA04A002BBDBF01232360039B0023BCBF23F000430393DDF80C80A8BF236028F0004368
:401C00001B0D1B0593421DD142F20F73209A1360029B43B9934A944BC8F31300002814BF1846104600E09048229B002B00F04685C37813B100F1080300E0C31C229A1360A0
:401C400000F03CBDDDE90245002200232046294601F002FB074658B1209A01231360229B002B00F01E8581481860013800F026BD12AB019313AB009322462B46504600F0F6
:401C8000B7FFC8F30A56049056B1C5F3130343F07F51204641F44011A6F2FF3611971DE0139B129E1E4406F23243202B0ADD029A06F21240C3F1400322FA00F008FA03F349
:401CC000184304E0C3F12000029B03FA00F0FFF7CDFA0123A1F1F871013E11930022644BFFF786F958A3D3E9002301F04DF858A3D3E90023FFF77EF9044630460D46FFF7E2
:401D0000C5FA55A3D3E9002301F03EF802460B4620462946FFF76EF904460D4601F0E4FA0022834600232046294601F09FFA58B15846FFF7ABFA02460B462046294601F0A1
:401D40008BFA08B90BF1FF3BBBF1160F0DD8DDE90223484901EBCB01D1E9000101F0A4FA30B10BF1FF3B002300E00123109300E01090129B9E1B731E079343BFC3F1000803
:401D8000002307934FF00008BBF1000F06DB079BCDF82CB05B440793002705E00023CBEB0808CBF100070B931E9B092B28D8052BC4BF043B1E931E9BC8BF0025A3F1020323
:401DC000D8BF0125032B20D8DFE803F0060E0204012302E0012308E000230A931F9B002B1DDD9946059321E000230A931F9B0BEB030909F10103012B0593B8BF012315E035
:401E0000012500231E930A9501E001230A934FF0FF390022CDF8149012231F9206E04FF001094B46CDF81490CDF87C90DAF8244000226260042101F114029A421CD86268A4
:401E4000490001326260F6E761436F63A787D23FB3C8608B288AC63FFB799F501344D33F0000F07F8C380000953800008B3800000000F83FA83800006168504600F030FC54
:401E8000DAF8243020601B680693059B0E2B00F25B81002D00F05881DDE90234BBF1000FCDE90E3430DD9F4A0BF00F034FEA2B1502EBC303E80618CBCDE908340CD5DDE97B
:401EC0000E01994B05F00F05D3E9082301F086F80324CDE9020100E00224934E6DB1E90708D5DDE90801D6E9002300F04DFFCDE9080101346D100836F0E7DDE90823DDE9B4
:401F0000020101F06BF820E0CBF1000505B3DDE90E01844B05F00F0203EBC203D3E9002300F032FFCDE902017F4E2D110023022455B1EA0705D5D6E9002300F025FF01346B
:401F400001236D100836F3E71BB1CDE9020100E00224109BE3B1DDE902560022734B2846314601F083F998B1059B8BB1B9F1000F40F3E6800BF1FF330893314600226C4BFE
:401F8000284600F001FF0134CDE902014E4602E0059ECDF820B02046FFF778F9DDE9022300F0F2FE634B0022FFF724F8A1F1507304460C931D46D6B9DDE9020100225E4BE9
:401FC000FFF716F822460C9BCDE9020101F06CF9002840F03F820C99224601F10043DDE9020101F043F9002840F02B82A8E00A9A4C4B711E002A49D003EBC103D3E9002343
:4020000000204E4900F0EAFF22462B46FEF7F0FFCDE90C01069CDDE9020101F065F90546FFF734F902460B46DDE90201FEF7E0FFDDE90C23303504F8015BCDE9020101F0D6
:4020400015F9002840F01D83DDE9022300203749FEF7CEFFDDE90C2301F008F9002840F0D180069BE31AB3426ADADDE90C0100222F4B00F089FE0022CDE90C01DDE9020112
:402080002B4B00F081FECDE90201C4E703EBC1012246D1E900012B4600F076FE069BCDE90C011D469C19DDE9020101F01DF90646FFF7ECF802460B46DDE90201FEF798FFCF
:4020C000303605F8016BAC42CDE902014FF0000222D11A4BDDE90C01FEF78CFF02460B46DDE9020101F0E0F8002840F08B80DDE90C2300201149FEF77BFF02460B46DDE9B3
:40210000020101F0B3F8D8B114F8013C621E302B40F0B7821446F7E7054B00F035FECDE90201C0E7A8380000803900000000F03F0000244000001C40000014400000E03FE4
:40214000DDE90E34CDE90234139B002B7CDBBBF10E0F79DCAB4B03EBCB03D3E900671F9B002B14DA059B002B11DC40F06C810022A54B3046394600F007FEDDE9022301F0C8
:4021800089F8059D2E46002840F05F8165E1069CDDE9028932463B464046494600F01EFF01F0A2F80546FFF771F832463B4600F0EBFD0B46024649464046FEF719FF05F145
:4021C000300E069B04F801EBC3EB040E059B73452DD102460B46FEF70DFF8046894602460B463046394601F041F878B942464B463046394601F030F8002800F04482EB07F3
:4022000004D440E2DDF820B000E01C4614F8012C631E392A07D1069A9A42F6D1069930220BF1010B0A701A7801321A702BE20022764B00F0A9FD002200238046894601F072
:402240000BF80028A6D01EE20A9A002A2BD01E9A012A0ADC119A12B103F2334302E0129BC3F136033D46444613E0059B5D1EAF42BFBF0B9BEA1B9B180B93059BB6BF2F46C6
:402280007D1B0025002BA7BF4446059BC3EB08040023079A01211A4450469844079200F0F3FA064602E03D4644460A9E5CB1079B002B08DDA342A8BF2346079AC3EB08080A
:4022C000E41AD31A0793002F1DDD0A9BABB18DB131462A46504600F071FB049A01460646504600F0DAFA04990890504600F02DFA089B04937A1B06D000E03A460499504673
:4023000000F05CFB04900121504600F0BDFA0B9B05465BB31A460146504600F04FFB1E9B0546012B18DC029B83B9039BC3F3130373B9039B23F000473F0D3F054FB1079B30
:4023400008F1010801330793012702E0002700E0029F0B9B73B100E000272B6905EB8303186900F044FAC0F1200004E01E9B012BD9DD0B9F0120079B184410F01F0008D041
:40238000C0F12003042B02DDC0F11C0002E006D018461C30079B8044034404440793B8F1000F05DD42460499504600F055FB0490079B002B05DD29461A46504600F04CFB09
:4023C0000546109B23B32946049800F096FB00281EDA00230A220499504600F0CDF90A9B0BF1FF3B0490002B00F05F81314600230A22504600F0C0F9B9F1000F06463FDC9E
:402400003BE000BFA83800000000144000002440059B002B2BDC1E9B022B28DDDDF81490B9F1000F11D129464B460522504600F0A3F901460546049800F05FFB00280CDC88
:4024400003E0354600E000252E461F9B069C6FEA030B09E03546DDF820B0069B069A5C1C312313700BF1010B05960026F7E00A9BDDF8149023B9069CB2E01E9B022BCFDCCA
:40248000002C05DD31462246504600F0E5FA06469FB17168504600F023F90446326906F10C01023292000C30FEF782FF01222146504600F0D1FA059000E00596029B069F25
:4024C00003F00103079329460498FFF7D7FA3146044600F13008049800F00FFB059A02902946504600F025FBC36802463BB901460A90049800F001FB0A9A034600E00123F2
:40250000114650460A9300F020F90A9B53B91E9A42B9079A32B9B8F1390F2AD0029B002B1CDC1DE0029A002A04DB1BD11E9ACAB9079ABAB9002B13DD01220499504600F02F
:402540008BFA2946049000F0D8FA002803DC07D118F0010F04D0B8F1390F0AD004F131087C1C0CE0002B07F101040BDDB8F1390F03D139233B70013756E008F1010887F8FE
:4025800000806CE0069B2746E31A4B4504F8018C3BD000230A220499504600F0EDF8059B04909E424FF00A024FF000033146504604D100F0E1F80646059084E700F0DCF86D
:4025C000002306460A220599504600F0D5F8059079E700230A220499504600F0CDF8049029460498FFF74AFA069B00F1300804F8018BE31A4B45ECDB069B0596B9F1010FAE
:40260000ACBF4B4401331F46002601220499504600F022FA2946049000F06FFA002803DC15D118F0010F12D03C4614F8013C621E392B09D1069B934204D10BF1010B31230C
:40264000069A02E01446F0E70133137007E03C4614F8013C621E302B01D11446F8E72946504600F072F8059B6BB12EB19E4203D03146504600F069F80599504600F065F8CC
:4026800001E0DDF820B00499504600F05EF80023209A23700BF101031360229B1BB11C6001E008480AE0069808E0B9F1000F3FF7E2AE1E9B022B7FF7DEAEB1E615B0BDE82A
:4026C000F08F00BF8A380000004870478881FF1F024B0146186800F0E7BA00BF8481FF1F70B5456A04460E463DB91020FFF7F0FF6062456085600560C560656AEB6843B1C4
:40270000636ADB6853F8260078B1026843F8262017E021220421204600F0B8FA636AE860DB68002BECD1002070BD012101FA06F56A1D9200204600F0A9FA0028F3D0466055
:40274000856000230361C36070BD70B5446A06460D463CB91020FFF7BBFF7062446084600460C4603DB1736A6A68DB6853F82210296043F8225070BD2DE9F04106460C46CF
:402780000D691F4601F1140E0023DEF80000013381B202FB0171000C0F0C02FB007089B201EB00419D424FEA10474EF8041BECDCD7B1A3689D4212DB616830460131FFF7FD
:4027C0008FFF8046226904F10C01023292000C30FEF7EEFD21463046FFF7B7FF444604EB850301355F6125612046BDE8F081030C1B0413B90004102300E0002310F07F4F92
:4028000004BF0002083310F0704F04BF0001043310F0404F04BF80000233002803DB420003D5581C70471846704720207047036813F007020BD0D90722D49A074BBF5B084A
:402840009B08036003604CBF01200220704799B209B91B0C102213F0FF0F04BF1B0A0832190704BF1B090432990704BF9B080232D90702D45B0805D0013203601046704749
:40288000002070472020704710B50C460121FFF727FF01224461026110BD2DE9F74F14460A69236988469A42BEBF0B46A0461C46D8F81070D4F81090D8F80830D8F80410E0
:4028C00007EB09069E42C8BF0131FFF709FF00F114052B4605EB860C0022634502D243F8042BFAE704F1140208F1140102EB890301EB87070093009B0192934257D9B2F8DE
:4029000000B0BBF1000F23D08946AE464FF0000859F8044BBEF800A0A3B20BFB03A34FEA144ADEF8004043444FEA14480BFB0A84F24604EB13449BB243EA04434F454FEACF
:4029400014484AF8043B01D9D646E1E7CEF80480019B0432B3F802A0BAF1000F21D02C4689462B684FF00008B9F800E0B4F802B09BB20AFB0EBEA346F04443EA08434BF8A8
:40298000043B59F8043BB4F804E01B0C0AFB03E34F4503EB18434FEA134801D95C46E3E763600435A7E75CF8043D13B9013E002EF9DC066103B0BDE8F08F00002DE9F84333
:4029C000154612F0030206460F4607D0214C013A002354F82220FFF7CFFE0746AD1036D0746A3CB91020FFF773FE7062446084600460C460D6F82480D8F808404CB940F2C4
:402A000071213046FFF740FF04460023C8F8080003604FF00008EB070AD5394622463046FFF73BFF814639463046FFF78EFE4F466D100CD0206808B10446ECE722462146C3
:402A40003046FFF72AFF2060C0F80080F4E73846BDE8F883703900002DE9F0470C460746914626694FEA621A56444968A368751CAB4202DA01315B00FAE73846FFF730FE20
:402A8000002380461A4600F11401534503DA41F823200133F9E72AEAEA73206901EB830319F01F0904F1140101EB800E14D0C9F1200C002208689A4600FA09F0024343F8F2
:402AC000042B51F8042B8E4522FA0CF2F2D8CAF8042042B1B51C06E0043B51F8042B8E4543F8042FF9D8013D3846C8F810502146FFF72BFE4046BDE8F08703690A6910B577
:402B00009B1A11D192001430143183180A4453F8044D52F8041D8C4202D007D3012010BD9842F4D3002010BD184610BD4FF0FF3010BD2DE9F8430C4607461146204615468F
:402B4000FFF7DBFF061E08D131463846FFF7C8FD012303614661BDE8F883BCBF23462C4638466168BABF1D4601260026FFF7B8FD2B69C660266905F1140904F1140101EBC6
:402B8000860709EB830800F114054FF0000C51F8042B59F8044B93B29C44A3B2240CC3EB0C03C4EB124202EB23429BB24FEA224CC84543EA02428E4645F8042BE7D8BE456C
:402BC0000ED25EF8041B8AB26244131403EB114392B242EA03424FEA234C45F8042BEEE755F8043D0BB9013EFAE70661BDE8F8832DE9F3411C4601219046089E099DFFF7B8
:402C00006FFDC4F31302C4F30A5407460CB142F480120192B8F1000F19D002A840F8088DFFF705FE009B48B1019AC0F1200102FA01F10B43C2407B61019200E07B61019BCB
:402C4000002B14BF02210121BB61396107E001A8FFF7EDFD019B01217B613961203034B1A4F2334404443460C0F1350009E0A0F2324007EB810330601869FFF7B8FDC0EBE9
:402C800041102860384602B0BDE8F08138B502FB01F4214600F008F8054618B122460021FEF791FB284638BD70B5CD1C25F0030508350C2D38BF0C25002D064601DBA94235
:402CC00002D90C23336046E000F05CF8234B1C681A462146A1B10B685B1B0ED40B2B03D90B60CC18CD501EE08C420BBF63684B681360636018BF0C4615E00C464968E9E73E
:402D0000174C23681BB9304600F02CF820602946304600F027F8431C18D0C41C24F00304A0420DD12560304600F02DF804F10B00231D20F00700C31A0ED05A42E25070BDB4
:402D4000211A304600F00EF80130EBD10C233360304600F018F8002070BD00BF0884FF1F0484FF1F38B5064C0023054608462360FDF7ECFB431C02D1236803B12B6038BDE1
:402D8000088AFF1F7047704770B54FF0FF0C4CF4E06C1CEA11541DBF1CEA135594EA0C0F95EA0C0F00F0DEF82C4481EA030621EA4C5123EA4C5350EA013518BF52EA033559
:402DC00041F4801143F4801338D0A0FB02CE4FF00005E1FB02E506F00042E0FB03E54FF00006E1FB03569CF0000F18BF4EF0010EA4F1FF04B6F5007F64F5407404D25FEAA7
:402E00004E0E6D4146EB060642EAC62141EA55514FEAC52040EA5E504FEACE2EB4F1FD0C88BFBCF5E06F1ED8BEF1004F08BF5FEA500E50F1000041EB045170BD06F00046BA
:402E400046EA010140EA020081EA0301B4EB5C04C2BFD4EB0C0541EA045170BD41F480114FF0000E013C00F3AB8014F1360FDEBF002001F0004170BDC4F10004203C35DA90
:402E80000C341BDC04F11404C4F1200500FA05F320FA04F001FA05F240EA020001F0004221F0004110EBD37021FA04F642EB06015EEA430E08BF20EAD37070BDC4F10C042B
:402EC000C4F1200500FA04F320FA05F001FA04F240EA020001F0004110EBD37041F100015EEA430E08BF20EAD37070BDC4F1200500FA05F24EEA020E20FA04F301FA05F248
:402F000043EA020321FA04F001F0004121FA04F220EA020000EBD3705EEA430E08BF20EAD37070BD94F0000F0FD101F00046400041EB010111F4801F08BF013CF7D041EA47
:402F4000060195F0000F18BF704703F00046520043EB030313F4801F08BF013DF7D043EA0603704794EA0C0F0CEA135518BF95EA0C0F0CD050EA410618BF52EA4306D1D147
:402F800081EA030101F000414FF0000070BD50EA410606BF1046194652EA430619D094EA0C0F02D150EA013613D195EA0C0F05D152EA03361CBF104619460AD181EA03011B
:402FC00001F0004141F0FE4141F470014FF0000070BD41F0FE4141F4780170BD70B54FF0FF0C4CF4E06C1CEA11541DBF1CEA135594EA0C0F95EA0C0F00F0A7F8A4EB0504C8
:4030000081EA030E52EA03354FEA013100F088804FEA03334FF0805545EA131343EA12634FEA022245EA111545EA10654FEA00260EF000419D4208BF964244F1FD0404F522
:40304000407402D25B084FEA3202B61A65EB03055B084FEA32024FF480104FF4002CB6EB020E75EB030E22BFB61A754640EA0C005B084FEA3202B6EB020E75EB030E22BF27
:40308000B61A754640EA5C005B084FEA3202B6EB020E75EB030E22BFB61A754640EA9C005B084FEA3202B6EB020E75EB030E22BFB61A754640EADC0055EA060E18D04FEA03
:4030C000051545EA16754FEA06164FEAC30343EA52734FEAC2025FEA1C1CC0D111F4801F0BD141EA00014FF000004FF0004CB6E711F4801F04BF01430020B4F1FD0C88BFD4
:40310000BCF5E06F3FF6AFAEB5EB030C04BFB6EB020C5FEA500C50F1000041EB045170BD0EF0004E4EEA113114EB5C04C2BFD4EB0C0541EA045170BD41F480114FF0000E12
:40314000013C90E645EA060E8DE60CEA135594EA0C0F08BF95EA0C0F3FF43BAF94EA0C0F0AD150EA01347FF434AF95EA0C0F7FF425AF104619462CE795EA0C0F06D152EAE2
:4031800003353FF4FDAE1046194622E750EA410618BF52EA43067FF4C5AE50EA41047FF40DAF52EA43057FF4EBAE12E74FF0FF3C06E000BF4FF0010C02E000BF4FF0010CE9
:4031C0004DF804CD4FEA410C7FEA6C5C4FEA430C18BF7FEA6C5C1BD001B050EA410C0CBF52EA430C91EA030F02BF90EA020F0020704710F1000F91EA030F58BF994208BFF3
:4032000090422CBFD8176FEAE37040F0010070474FEA410C7FEA6C5C02D150EA013C07D14FEA430C7FEA6C5CD6D152EA033CD3D05DF8040B704700BF8446104662468C4683
:403240001946634600E000BF01B5FFF7B7FF002848BF10F1000F01BD4DF808EDFFF7F4FF0CBF012000205DF808FB00BF4DF808EDFFF7EAFF34BF012000205DF808FB00BF9E
:403280004DF808EDFFF7E0FF94BF012000205DF808FB00BF4DF808EDFFF7CEFF94BF012000205DF808FB00BF4DF808EDFFF7C4FF34BF012000205DF808FB00BF4FEA410CE8
:4032C0007FEA6C5C02D150EA013C0AD14FEA430C7FEA6C5C02D152EA033C02D14FF0000070474FF0010070474FEA410212F5001215D211D56FF47873B3EB625212D94FEA8B
:40330000C12343F0004343EA505311F0004F23FA02F018BF404270474FF00000704750EA013005D111F0004008BF6FF0004070474FF00000704700BF0000000000000000AA
:4033400048656C6C6F2C20576F726C6421000000427574746F6E3A207072657373656400427574746F6E3A2072656C6561736564000000000051004010003051004040005B
:4033800000000140000880080140800700140140000800400140000A004C01400002005001402000605200403C050048060000080140440500488000FFFF0000FFCC0000A8
:4033C000FF990000FF330000FF000000B3006600990099006600B3003300CC001919B3000033990000409900006699000099990000CC990000E6660000FF000033FF000004
:4034000066FF000080FF000099FF0000B2FF0000CCFF0000E5FF000000000000000055000000AA000000FF0055000000550055005500AA005500FF00AA000000AA005500B7
:40344000AA00AA00AA00FF00FF000000FF005500FF00AA00FF00FF0000550000005555000055AA000055FF0055550000555555005555AA005555FF00AA550000AA5555000A
:40348000AA55AA00AA55FF00FF550000FF555500FF55AA00FF55FF0000AA000000AA550000AAAA0000AAFF0055AA000055AA550055AAAA0055AAFF00AAAA0000AAAA55007A
:4034C000AAAAAA00AAAAFF00FFAA0000FFAA5500FFAAAA00FFAAFF0000FF000000FF550000FFAA0000FFFF0055FF000055FF550055FFAA0055FFFF00AAFF0000AAFF5500EA
:40350000AAFFAA00AAFFFF00FFFF0000FFFF5500FFFFAA00FFFFFF00FF800000FF008000FF00FF008000FF000080FF0000FF8000FF00000020202000000020000000001092
:403540000000000000000000000000000000000000000000000000000000FF000010F0000020E0000030D0000040C0000050B0000060A0000070900000808000009070004C
:4035800000A0600000B0500000C0400000D0300000E0200000FF00000000000000000000000000000000000000000000000000000000000001010101010101010101010100
:4035C0000102020202020202020303030303030304040404040505050506060606070707070808080909090A0A0A0B0B0B0C0C0D0D0D0E0E0F0F10101111121213131414AA
:403600001515161617181819191A1B1B1C1D1D1E1F202021222323242526272728292A2B2C2D2E2F303132323334363738393A3B3C3D3E3F40424344454648494A4B4D4E2C
:403640004F515253555657595A5C5D5F606263656668696B6D6E7072737577787A7C7E7F81838587898A8C8E90929496989A9C9EA0A2A4A7A9ABADAFB1B4B6B8BABDBFC189
:40368000C4C6C8CBCDD0D2D5D7DADCDFE1E4E7E9ECEFF1F4F7F9FCFF000000000000005F00000007000700147F147F14242A7F2A12231308646236495522500005030000FB
:4036C000001C2241000041221C00082A1C2A0808083E080800503000000808080808006060000020100804023E5149453E00427F400042615149462141454B311814127F89
:403700001027454545393C4A49493001710905033649494936064949291E003636000000563600000008142241141414141441221408000201510906324979413E7E111189
:40374000117E7F494949363E414141227F4141221C7F494949417F090901013E414151327F0808087F00417F41002040413F017F081422417F404040407F0204027F7F0459
:4037800008107F3E4141413E7F090909063E4151215E7F09192946464949493101017F01013F4040403F1F2040201F7F2018207F631408146303047804036151494543000E
:4037C000007F4141020408102041417F000004020102044040404040000102040020545454787F484444383844444420384444487F3854545418087E090102081454543C91
:403800007F0804047800447D40002040443D00007F10284400417F40007C041804787C0804047838444444387C14141408081414187C7C080404084854545420043F44400D
:40384000203C4040207C1C2040201C3C4030403C44281028440C5050503C4464544C44000836410000007F0000004136080008082A1C08081C2A08084300494E4600696E14
:4038800066004E414E006E616E003000496E66696E697479004E614E00504F534958002E0000000000000000000000000000F03F0000000000002440000000000000594024
:4038C0000000000000408F40000000000088C34000000000006AF8400000000080842E4100000000D01263410000000084D797410000000065CDCD41000000205FA00242BD
:40390000000000E876483742000000A2941A6D42000040E59C30A2420000901EC4BCD64200003426F56B0C430080E03779C3414300A0D8855734764300C84E676DC1AB4314
:40394000003D9160E458E143408CB5781DAF154450EFE2D6E41A4B4492D54D06CFF08044F64AE1C7022DB544B49DD9794378EA4405000000190000007D00000000000000A3
:403980000080E03779C34143176E05B5B5B89346F5F93FE9034F384D321D30F94877825A3CBF737FDD4F1575F8B500BFF8BC08BC9E4670474D000000C9050000F8B500BF82
:4039C000F8BC08BC9E46704729000000E0390000C880FF1FF8000000500800000000000000000000108AFF1F0000E02EC05D00001800000000366E014142434445464748F8
:403A0000494A4B4C4D4E4F505152535455565758595A6162636465666768696A6B6C6D6E6F707172737475767778797A303132333435363738392B2F000000000000000045
:403A40000000000000000000000000000000000000000000000000000000000078380000000000000000000000000000000000000000000000000000000000000000000096
:403A8000000000000000000000000000000000000000000000000000000000002481FF1F9F380000A0380000A0380000A0380000A0380000A0380000A0380000A038000084
:403AC000A0380000A0380000FFFFFFFFFFFFFFFFFFFFFFFFFFFF00000000000000000000000000000000000000000000000000000000000000000000000000000000000024
:403B00000000000000000000000000000000000000000000000000000000000000000000000000000000000000000000000000000000000000000000000000000000000085
:403B40000000000000000000000000000000000000000000000000000000000000000000000000000000000000000000000000000000000000000000000000000000000045
:403B80000000000000000000000000000000000000000000000000000000000000000000000000000000000000000000000000000000000000000000000000000000000005
:403BC00000000000000000000000000000000000000000000000000000000000000000000000000000000000000000000000000000000000000000000000000000000000C5
:020000040003F7
:0200000480007A
:4000000001640040066500400103014001050140010701401508014052090140490A0140370B0140030D0140561801404C190140661A01404E1B014004400140064101406C
:4000400003420140044301400247014003480140014C0140074D0140045001400151014088380B181B182B143B0C88768A0FE642E602E602844086308C248E409030924458
:40008000960198029A0C9C40A201A450A870AA08B001B202B47CBE05D804DC01DF01008003200480051409040A440B020D080E020F0810A0120814081541171819091A04AC
:4000C0001C081D141E021F44240427522C422F08360237243C043D203F814040430144404504460447614C804E015740580259015F0260806201640A67406D406E017601BD
:40010000770887408D0892C0942095449601970299409CA09D149E40A040A122A208A320A408A508A701A908AB80B001B210C0E5C2EFC4BECAB0CCE0CEF0D0F0D210D6801D
:40014000D8B0030C04330551064C070608AA0A440B400C330D510EC40F0E152017431E80230824032604290C2A552B532E8830C83130330F340F36303740388039023A228A
:400180003B083E403F40580459045C115F01810284C385028638880889028AE68F0592109401970498049B019C409F01A040A280A304A480AB02AD02AE01B018B2C8B304F4
:4001C000B407B501B620B702B820BF54D804D904DB04DF0100640120051408400B020C040D2A0F021008121215441641184419401A401B201C021D221F0820A02101224A49
:40020000250426202702284029202E012F0A300834943610386439023A103D423E145C205F80641066016D026E146F028702A504A620C067C2F1C4B7CAB5CC72CEFFD63060
:40024000D8C086208D04E6400180020C041C05100623083F09080C330E0C0F23115C122313211402157C17021B041C1F1D801E201F182003216723182408257F28042C01A8
:400280002D04300F32103338351F362C37C039803AA23B203E044064450E460B470C481549FF4AFF4BFF56025711580459045A045B045C115D105F0162C064406501860F3E
:4002C0008C029001940498079A08A207AA08B40FC005C740C9FFCA0FCBFFCC40CD20CEF0CF05D008D804DA04DD01DF01E040E1A8E240E320000803020446051006060A1076
:400300000B880D040E020F41110112081502160117181A081C401D101E221F1024062504268027042C022E022F1036A137043C023E283F40450249404E1C500853015508DD
:40034000564058205A205E206D906E096F0174017628771892C0938894E095059602970399409C209E449F04A004A122A320A42AA51CA602A705B201B308C0F5C2BEC4FABC
:40038000CAD0CCF0CEF0D080D228D620040A060509020B040E021102130415011609180519021B041D021F04210622052F0830033106320C330135083A0A3F0440264104DE
:4003C000450B46C0470E481949FF4AFF4BFF4EF04F44500C5401580459045A045B045C105D115F0166C06A406B028003813D82FC83C089CD8B308C488DC08E258F3090254C
:4004000092DA930195CD973098E399A89A1C9B549C1F9D0D9EE09FF0A0E0A21CA302A492A625A8E3AA1CAD55AFA8B103B5FCB6FFBE40C026C525C620C710C82BC9FFCAFF09
:40044000CBFFCDA0D804D904DA04DC10DF01E040E140E2C0E4C0E6C00008030204220510060107400A100B080C500D030E0911011518170918801A101B061F8022252340E4
:40048000251226122708284029802D802F80301033493616374039103D903E0142404320452048284D054F20501053085711580259105A88800283088C028D808E01900251
:4004C000911092C1930894A0950F961297409B019E01A00CA160A204A320A422A510A622A707C095C2D6C478CA99CCFFCEB4D025D224D60F301033083580CC7084108D801E
:400500009C109D80A708E6408710A708E64087089320A708E6408D02E00253109320D4209902108075028C809902C408DE04E60200030C0310031C03003F000080800000BD
:4005400040000000000000076D001208A4025A20000049080003001021000007000749000000890000074900100002000000000300012120003038080704C0032020800083
:40058000000000054502030001C00E0006FFFFFF62A0F0410C00000018000400040404041011000100000000000040020010301000101012000000000000000000000000C9
:4005C000000000008000408080008000000000000001010001000000000B0B0000000000040000060200000000000000000000000000000000000000000000000000000096
:4006000000000000000000000000000000000000000000000000000000000000000000000000000000000000000000000000000000000000000000000000000000000000BA
:40064000000000000000000000000000000000000000000000000000000000000000000000000000000000000000000000000000000000000000000000000000000000007A
:40068000000000000000000000000000000000000000000000000000000000000000000000000000000000000000000000000000000000000000000000000000000000003A
:4006C00000000000000000000000000000000000000000000000000000000000000000000000000000000000000000000000000000000000000000000000000000000000FA
:0200000490006A
:0400000000004005B7
:0200000490105A
:04000000BC90ACAF55
:0200000490303A
:02000000617B22
:0200000490402A
:4000000000000000000000000000000000000000000000000000000000000000000000000000000000000000000000000000000000000000000000000000000000000000C0
:400040000000000000000000000000000000000000000000000000000000000000000000000000000000000000000000000000000000000000000000000000000000000080
:400080000000000000000000000000000000000000000000000000000000000000000000000000000000000000000000000000000000000000000000000000000000000040
:4000C0000000000000000000000000000000000000000000000000000000000000000000000000000000000000000000000000000000000000000000000000000000000000
:0200000490501A
:0C00000000012E16106900012E2D71E485
:00000001FF