:400000000080002011000000C5040000C504000008B5044B1A6803F53F5302331A6000F059FA00BFFA46004010B5054C237833B9044B13B10448AFF300800123237010BD92
:400040008881FF1F00000000CC0D0000084B10B51BB108490848AFF300800848036803B910BD074B002BFBD0BDE81040184700BF000000008C81FF1FCC0D0000C880FF1FD0
:4000800000000000704700002DE9F04100F080FB164B1C781D4624B901261F46DFF850800EE05A7801325A70BDE8F04100F0E6BA00F0CEFAC0B23A2807D10023AB70013475
:4000C00000F0D4FA8442F3DD0DE00D2801D00A2801D12E70F3E7AB781A065EBF5A1CBA7008F80300EBE7BDE8F08100BFA481FF1FC881FF1F10B583680446187800F04EFB26
:4001000014494A682ABB0123A0684B6003789BB1012B04D14278837843EA02230CE0134618460D4A98540133B3F5967FFAD101238B6000234B6010BD074800220344A07908
:4001400004388242F3D2A0681044007998540132F5E710BDA481FF1F7C82FF1F07B5002368460093019300F0C9FA9DE80C005340064A23F07C43536000F03CFA044800F0FC
:40018000F5FA62B603B05DF804FB00BF5082FF1F890000002DE9FF41FFF7E0FF3B4B01AA02930A238DF80430394B00245A62039400F0A0FB204600F05DFC364B364E186E62
:4001C00000F08CFB354A364B01201A60374600F0E5FB33782BB1B178324800F0F3FA002333707B782BB100F013FA0023737000F001FA012000F06CFA43F697239C4205D9F0
:400200000D222949294800F019FB002400F0D2FA98BB274D0F22A8462649244800F00EFB4FF47F026FF07F43FF204FF47F4185E80F0004234FF07F4248F823200133B3F505
:40024000967FF9D1012000F0A9FB00F0B3FA18B90A2000F03DFAF8E710221749134800F0EDFA00231A462B6048F823200133B3F5967FF9D1012000F091FBBB6823B1012087
:4002800000F08CFB0023B3600134A2E7F50000005082FF1F300E0000A481FF1F850000004C82FF1FC881FF1FD00D0000785634127C82FF1FDE0D0000EE0D0000F8B572B6CD
:4002C000644A654D1378002443F004031370062606FB045300219A881868013400F06DFD082CF5D15D4B5E4A5E4D92E803008022186099805C485D4900F054FD5C48002464
:4003000050F8041F04F1105303F1300221F0FF063133C9B20B4452005B0002329A4206D012F8027C12F801EC07F806E0F5E7A8420C44E5D14F4A504C1378504D43F0020338
:400340001370137C4E4F43F0020313742378A2F5863243F040032370413A1378192643F010031370474A484B07CA03C31A80474A474B03CB1060516003CB42F8E00C42F879
:40038000DC1C93E8070003C52A80424A00251378032143F0080313703F4B61221A70A3F5F06358221D809A700C229A8018229A71022283F8802208224FF040231A7083F8EE
:4003C0000012364B36491B78DBB20B70354B1A8041F2512223F8022C3B784FF4F07003F0010343EA450500F0C3FB013E05F003052FD0032DF0D12C4B4FF480721A802B49EF
:4004000007221A70482000220A7088701A70022203F8032C264A274D137843F0030313701D4B81221A7003F5F723012204331A70214B224A1B78DBB203F007011B091170E7
:4004400053701F4B44221A7094E80F0007C52B80F8BDFEE7E8460040FF0D0000605200403C0500485C0000480008014044050048FCFFFF4703500140A043004020510040A7
:4004800025420040C4050048C0510040F2510040D0050048224300400048004008010049A1460040224200400440004006400040A2430040B0430040CF0100496E580040C8
:4004C0007658004008B500F041FC03680C2B00D1FEE7FEE780B51148114B0025C0B1A3F1100192C922460439161BB74204D051F8046F42F8046BF7E7114653F8046C8C1AA9
:40050000A64202D041F8045BF9E701381033E5E700F022FCFFF73EFEFEE700BF0100000028150000104A114B10B41A60104A114C1368114843F4007313600023032B98BFDB
:4005400054F823204FEA830188BF0C4A0133302B4250F3D10A4B1A780A4B1A700A4B064A10BC1A60FFF7AABE0004FA050CED00E014ED00E0000000000080FF1FC50400007A
:40058000BC760040C080FF1F08ED00E0084B76221A70A3F5807320221A700E2283F8A1208F2283F8B120002283F80221704700BF8865004010B500F0E3FA04460C4A137841
:4005C000A2F5807243F0200382F80031137843F01003137092F8023143F0100382F8023100F05EF82046BDE8104000F0CDBA00BF9865004008B505490B781BB9FFF7C6FF3C
:4006000001230B70BDE80840FFF7D4BFB181FF1F10B500F0B5FA04460B4A137803F0DF03137000F049F8094A2046137803F0EF03137092F8023103F0EF0382F80231BDE89E
:40064000104000F0A1BA00BF9865004098640040044B054A1B78107803F07F0340EA0320704700BF6864004048640040024B1878C0F34010704700BF6864004008B500F0AF
:400680007FFA064B1A7842F001021A701A7802F0FE021A70BDE8084000F076BA98640040044A137843F002031370137C43F0020313747047A2430040044A137803F0FD033E
:4006C0001370137C03F0FD0313747047A243004038B50446084DB4F5004F05D9286800F047FAA4F50044F6E7034B58686043BDE8384000F03DBA00BFCC80FF1F134B144A1B
:400700001B78DBB20360127843EA0223114A0360127843EA0243104A0360127843EA026303600E4B0E4A1B78DBB24360127843EA02230C4A4360127843EA02430A4A436028
:40074000127843EA02634360704700BF0301004904010049EC4600400201004901010049000100490501004906010049064A0423136002F68832126820219064034A11709E
:40078000A2F202321360704780E100E002E400E0014B04221A60704780E200E0044A4000137800F0020003F0FD0303431370704720510040024B1878C0F38000704700BFA6
:4007C0002151004010B50E2994B032D904AC224600F066FA14AAC3B2134413F8401C13F83F2C0E3842EA0122002103F8421C07AB0393049BADF808209A0F01948DF80A009D
:4008000001D0032A02E00C4A5268934211D19DF81920094B012A01D11B6A07E05B6A00E09B6833B119789142FAD15B680BB101A8984714B010BD00BF5082FF1F30B5144645
:40084000244AA1B015460090536823480193037803F0E0036FF3471303708DF808300A238DF80930D369581CADF80A30D0610023DAB2944205D9C85C0DEB030210730133F1
:40088000F6E704F10C01C9B2684600F049FA20AB234403F8740C631C20AADBB21344000A04F10E0103F8740C0DF14102C9B2684600F08EF93A238DF84030C1B220AB0B44DA
:4008C0000A2203F83F2CAB6A13B1023110A8984721B030BD5082FF1F4882FF1F044A002342F823000133B3F5967FF9D1704700BF7C82FF1F38B5164B01241C70154B03228E
:400900001A701D2203F8502C1349182203F8702C0E2203F8602C00200C70FFF7DFFF00250D70284600F0E6F80C4B6FF07F421A600B4B1D600B4B1A7A32B90B481C7200F0DB
:4009400005F90A4800F0EEF8094B01221A6038BD4982FF1F9B650040786400402C87FF1F3087FF1FB481FF1F190A0000E10900003487FF1F074A1378DB07FCD5064BC2B2F3
:400980001A70C0F307221A70C0F30742000E1A70187070476B6400404865004008B50B4918B10B4A0023CB601370CA684FF496635343084AD058FFF7DDFF01230B61064B47
:4009C00019221A70054B00221A6008BDB481FF1F7B6400407C82FF1F786400403487FF1F0A490B69B3F5967F0BD2CA68581C08614FF4967101FB0233054A52F82300FFF761
:400A0000B9BF044B11221A70704700BFB481FF1F7C82FF1F7864004010B5104C212310492370CB680133CB6053B90E4A13700E4B1868FFF79FFF01230B610923237010BDDE
:400A40000A4B0B4C0120186023682BB1FFF740FE2368BDE81040184710BD00BF78640040B481FF1F7B6400407C82FF1F3487FF1F4C82FF1F0138164A164B062821D8DFE8D4
:400A800000F004080C1014181C001349116001221BE012491160022217E011491160032213E01049116004220FE00F49116005220BE00E491160062207E00D4911600722A0
:400AC00003E06FF07F41116000221A60704700BF2C87FF1F3087FF1F7F7F7F003F3F3F001F1F1F000F0F0F0007070700030303000101010030B50649064A0520064C074D97
:400B0000074B086007211160202225601A6030BD3887FF1F4487FF1F4087FF1F101100003C87FF1F074A0223136002F688321268E0215064044A11706FF440710A44136019
:400B4000704700BF80E100E001E400E0064A0123136002F688321268E0211064034A1170A2F540721360704780E100E000E400E00230800803D000BF01380046FCD17047DC
:400B8000EFF3108072B6704780F31088704700BF2B28034614D02F2814D03D2814D0A0F13002092A01D8043308E04138C0B219280DD9A3F16102192A08D8473BD8B2704782
:400BC0003E2070473F2070474020704700207047F7B5002506462B462846304F5FFA85FE714532D95C1CE4B20DF1080C16F80EE06344032C03F804EC24D19DF80440A3086E
:400C0000FB5C240113549DF8053004F0300407EB131E1EF8044002EB000E8EF801409DF806409B0007EB941C03F03C031CF8033004F03F048EF802303B5D04308EF803309B
:400C4000C0B2002401352346C8E71BB3012B9DF8044008BF0021114D08BF8DF80510A108695C240111549DF8051004F0300405EB1116022B365D08BF890002EB000466705E
:400C800006BF01F03C016B5C3D23A37004303D23E370C0B20023135403B0F0BDDC80FF1F2DE9F74300268046914634463746F3B2994230D918F80300FFF76AFF7D1CEDB20D
:400CC00002AB1F44042D07F8040C21D19DF805509DF80430C5F3011202EB830209F804209DF80620402A10D0C2F3830309EB040003EB051343709DF80730402B1DBF03EBAB
:400D0000821383700334023400E00134E4B2002501362F46CBE7204603B0BDE8F083000030B570B1084A0144002388420AD010F8015BC3F30F246B40DBB232F81330634066
:400D4000F3E70346184630BDF0120000014B1868704700BF8081FF1F0E4B70B51E460E4C0025E41AA410A54204D056F8253098470135F8E700F0BEFB084B094C1E46E41A8A
:400D8000A4100025A54204D056F8253098470135F8E770BD0015000000150000001500000815000010B5431E0A44914204D011F8014B03F8014FF8E710BD034602449342B4
:400DC00002D003F8011BFAE7704700000000000048656C6C6F2C20576F726C642100427574746F6E3A207072657373656400427574746F6E3A2072656C6561736564000022
:400E0000510040100030510040400000000140000880080140800700140140000800400140000A004C0140000200500140200000FFFF0000FFCC0000FF990000FF330000BC
:400E4000FF000000B3006600990099006600B3003300CC001919B3000033990000409900006699000099990000CC990000E6660000FF000033FF000066FF000080FF00008F
:400E800099FF0000B2FF0000CCFF0000E5FF000000000000000055000000AA000000FF0055000000550055005500AA005500FF00AA000000AA005500AA00AA00AA00FF0044
:400EC000FF000000FF005500FF00AA00FF00FF0000550000005555000055AA000055FF0055550000555555005555AA005555FF00AA550000AA555500AA55AA00AA55FF0006
:400F0000FF550000FF555500FF55AA00FF55FF0000AA000000AA550000AAAA0000AAFF0055AA000055AA550055AAAA0055AAFF00AAAA0000AAAA5500AAAAAA00AAAAFF0075
:400F4000FFAA0000FFAA5500FFAAAA00FFAAFF0000FF000000FF550000FFAA0000FFFF0055FF000055FF550055FFAA0055FFFF00AAFF0000AAFF5500AAFFAA00AAFFFF00E5
:400F8000FFFF0000FFFF5500FFFFAA00FFFFFF00FF800000FF008000FF00FF008000FF000080FF0000FF8000FF000000202020000000200000000010000000000000000033
:400FC000000000000000000000000000000000000000FF000010F0000020E0000030D0000040C0000050B0000060A00000709000008080000090700000A0600000B05000F2
:4010000000C0400000D0300000E0200000FF000000000000000000000000000000000000000000000000000000000000010101010101010101010101010202020202020296
:40104000020303030303030304040404040505050506060606070707070808080909090A0A0A0B0B0B0C0C0D0D0D0E0E0F0F101011111212131314141515161617181819A8
:40108000191A1B1B1C1D1D1E1F202021222323242526272728292A2B2C2D2E2F303132323334363738393A3B3C3D3E3F40424344454648494A4B4D4E4F51525355565759E8
:4010C0005A5C5D5F606263656668696B6D6E7072737577787A7C7E7F81838587898A8C8E90929496989A9C9EA0A2A4A7A9ABADAFB1B4B6B8BABDBFC1C4C6C8CBCDD0D2D56E
:40110000D7DADCDFE1E4E7E9ECEFF1F4F7F9FCFF000000000000005F00000007000700147F147F14242A7F2A12231308646236495522500005030000001C2241000041221F
:401140001C00082A1C2A0808083E080800503000000808080808006060000020100804023E5149453E00427F400042615149462141454B311814127F1027454545393C4A4B
:4011800049493001710905033649494936064949291E003636000000563600000008142241141414141441221408000201510906324979413E7E1111117E7F494949363E97
:4011C000414141227F4141221C7F494949417F090901013E414151327F0808087F00417F41002040413F017F081422417F404040407F0204027F7F0408107F3E4141413E86
:401200007F090909063E4151215E7F09192946464949493101017F01013F4040403F1F2040201F7F2018207F63140814630304780403615149454300007F4141020408106A
:401240002041417F000004020102044040404040000102040020545454787F484444383844444420384444487F3854545418087E090102081454543C7F0804047800447D8D
:4012800040002040443D00007F10284400417F40007C041804787C0804047838444444387C14141408081414187C7C080404084854545420043F4440203C4040207C1C20C7
:4012C00040201C3C4030403C44281028440C5050503C4464544C44000836410000007F0000004136080008082A1C08081C2A08080000C1C081C1400101C3C003800241C255
:4013000001C6C006800741C70005C1C581C4400401CCC00C800D41CD000FC1CF81CE400E000AC1CA81CB400B01C9C009800841C801D8C018801941D9001BC1DB81DA401AED
:40134000001EC1DE81DF401F01DDC01D801C41DC0014C1D481D5401501D7C017801641D601D2C012801341D30011C1D181D0401001F0C030803141F10033C1F381F24032AD
:401380000036C1F681F7403701F5C035803441F4003CC1FC81FD403D01FFC03F803E41FE01FAC03A803B41FB0039C1F981F840380028C1E881E9402901EBC02B802A41EA6D
:4013C00001EEC02E802F41EF002DC1ED81EC402C01E4C024802541E50027C1E781E640260022C1E281E3402301E1C021802041E001A0C060806141A10063C1A381A240622D
:401400000066C1A681A7406701A5C065806441A4006CC1AC81AD406D01AFC06F806E41AE01AAC06A806B41AB0069C1A981A840680078C1B881B9407901BBC07B807A41BAEC
:4014400001BEC07E807F41BF007DC1BD81BC407C01B4C074807541B50077C1B781B640760072C1B281B3407301B1C071807041B00050C190819140510193C05380524192AC
:401480000196C056805741970055C19581944054019CC05C805D419D005FC19F819E405E005AC19A819B405B0199C059805841980188C04880494189004BC18B818A404A6C
:4014C000004EC18E818F404F018DC04D804C418C0044C184818540450187C047804641860182C042804341830041C1818180404043000000F8B500BFF8BC08BC9E4670477A
:401500004D00000025050000F8B500BFF8BC08BC9E4670472900000028150000C880FF1FC0000000C0050000000000000000E02EC05D00001800000000366E014142434472
:4015400045464748494A4B4C4D4E4F505152535455565758595A6162636465666768696A6B6C6D6E6F707172737475767778797A303132333435363738392B2F0000000010
:401580000000000000000000000000000000000000000000000000000000000000000000F01400000000000000000000000000000000000000000000000000000000000027
:4015C00000000000000000000000000000000000000000000000000000000000000000002081FF1F000000000000000000000000000000000000000000000000000000002C
:4016000000000000000000000000000000000000000000000000000000000000000000000000000000000000000000000000000000000000000000000000000000000000AA
:40164000000000000000000000000000000000000000000000000000000000000000000000000000000000000000000000000000000000000000000000000000000000006A
:40168000000000000000000000000000000000000000000000000000000000000000000000000000000000000000000000000000000000000000000000000000000000002A
:4016C00000000000000000000000000000000000000000000000000000000000000000000000000000000000000000000000000000000000000000000000000000000000EA
:020000040003F7
:0200000480007A
:4000000001640040066500400103014001050140010701401508014052090140490A0140370B0140030D0140561801404C190140661A01404E1B014004400140064101406C
:4000400003420140044301400247014003480140014C0140074D0140045001400151014088380B181B182B143B0C88768A0FE642E602E602844086308C248E409030924458
:40008000960198029A0C9C40A201A450A870AA08B001B202B47CBE05D804DC01DF01008003200480051409040A440B020D080E020F0810A0120814081541171819091A04AC
:4000C0001C081D141E021F44240427522C422F08360237243C043D203F814040430144404504460447614C804E015740580259015F0260806201640A67406D406E017601BD
:40010000770887408D0892C0942095449601970299409CA09D149E40A040A122A208A320A408A508A701A908AB80B001B210C0E5C2EFC4BECAB0CCE0CEF0D0F0D210D6801D
:40014000D8B0030C04330551064C070608AA0A440B400C330D510EC40F0E152017431E80230824032604290C2A552B532E8830C83130330F340F36303740388039023A228A
:400180003B083E403F40580459045C115F01810284C385028638880889028AE68F0592109401970498049B019C409F01A040A280A304A480AB02AD02AE01B018B2C8B304F4
:4001C000B407B501B620B702B820BF54D804D904DB04DF0100640120051408400B020C040D2A0F021008121215441641184419401A401B201C021D221F0820A02101224A49
:40020000250426202702284029202E012F0A300834943610386439023A103D423E145C205F80641066016D026E146F028702A504A620C067C2F1C4B7CAB5CC72CEFFD63060
:40024000D8C086208D04E6400180020C041C05100623083F09080C330E0C0F23115C122313211402157C17021B041C1F1D801E201F182003216723182408257F28042C01A8
:400280002D04300F32103338351F362C37C039803AA23B203E044064450E460B470C481549FF4AFF4BFF56025711580459045A045B045C115D105F0162C064406501860F3E
:4002C0008C029001940498079A08A207AA08B40FC005C740C9FFCA0FCBFFCC40CD20CEF0CF05D008D804DA04DD01DF01E040E1A8E240E320000803020446051006060A1076
:400300000B880D040E020F41110112081502160117181A081C401D101E221F1024062504268027042C022E022F1036A137043C023E283F40450249404E1C500853015508DD
:40034000564058205A205E206D906E096F0174017628771892C0938894E095059602970399409C209E449F04A004A122A320A42AA51CA602A705B201B308C0F5C2BEC4FABC
:40038000CAD0CCF0CEF0D080D228D620040A060509020B040E021102130415011609180519021B041D021F04210622052F0830033106320C330135083A0A3F0440264104DE
:4003C000450B46C0470E481949FF4AFF4BFF4EF04F44500C5401580459045A045B045C105D115F0166C06A406B028003813D82FC83C089CD8B308C488DC08E258F3090254C
:4004000092DA930195CD973098E399A89A1C9B549C1F9D0D9EE09FF0A0E0A21CA302A492A625A8E3AA1CAD55AFA8B103B5FCB6FFBE40C026C525C620C710C82BC9FFCAFF09
:40044000CBFFCDA0D804D904DA04DC10DF01E040E140E2C0E4C0E6C00008030204220510060107400A100B080C500D030E0911011518170918801A101B061F8022252340E4
:40048000251226122708284029802D802F80301033493616374039103D903E0142404320452048284D054F20501053085711580259105A88800283088C028D808E01900251
:4004C000911092C1930894A0950F961297409B019E01A00CA160A204A320A422A510A622A707C095C2D6C478CA99CCFFCEB4D025D224D60F301033083580CC7084108D801E
:400500009C109D80A708E6408710A708E64087089320A708E6408D02E00253109320D4209902108075028C809902C408DE04E60200030C0310031C03003F000080800000BD
:4005400040000000000000076D001208A4025A20000049080003001021000007000749000000890000074900100002000000000300012120003038080704C0032020800083
:40058000000000054502030001C00E0006FFFFFF62A0F0410C00000018000400040404041011000100000000000040020010301000101012000000000000000000000000C9
:4005C000000000008000408080008000000000000001010001000000000B0B0000000000040000060200000000000000000000000000000000000000000000000000000096
:4006000000000000000000000000000000000000000000000000000000000000000000000000000000000000000000000000000000000000000000000000000000000000BA
:40064000000000000000000000000000000000000000000000000000000000000000000000000000000000000000000000000000000000000000000000000000000000007A
:40068000000000000000000000000000000000000000000000000000000000000000000000000000000000000000000000000000000000000000000000000000000000003A
:4006C00000000000000000000000000000000000000000000000000000000000000000000000000000000000000000000000000000000000000000000000000000000000FA
:0200000490006A
:0400000000004005B7
:0200000490105A
:04000000BC90ACAF55
:0200000490303A
:02000000E05DC1
:0200000490402A
:4000000000000000000000000000000000000000000000000000000000000000000000000000000000000000000000000000000000000000000000000000000000000000C0
:400040000000000000000000000000000000000000000000000000000000000000000000000000000000000000000000000000000000000000000000000000000000000080
:400080000000000000000000000000000000000000000000000000000000000000000000000000000000000000000000000000000000000000000000000000000000000040
:4000C0000000000000000000000000000000000000000000000000000000000000000000000000000000000000000000000000000000000000000000000000000000000000
:0200000490501A
:0C00000000012E16106900012E1EF0C633
:00000001FF